:020000040800F2
:100000000007002001010008B70F00087D0E00085E
:10001000B50F000849010008711600080000000033
:10002000000000000000000000000000991500081A
:100030004B01000800000000BB1400089B150008DD
:100040001B0100081B0100081B0100081B01000820
:100050001B0100081B0100081B0100081B01000810
:100060001B0100081B0100081B0100081B01000800
:100070001B0100081B0100081B0100081B010008F0
:100080001B0100081B0100081B0100081B010008E0
:100090001B0100081B0100081B0100081B010008D0
:1000A0001B0100081B0100081B0100081B010008C0
:1000B0001B0100081B0100081B0100081B010008B0
:1000C0001B0100081B0100081B0100081B010008A0
:1000D0001B0100081B0100081B0100081B01000890
:1000E0001B0100081B0100081B010008DFF80CD0F1
:1000F00000F018F800480047991600080007002093
:100100000648804706480047FEE7FEE7FEE7FEE7B1
:10011000FEE7FEE7FEE7FEE7FEE7FEE7E91500087B
:10012000ED000008064C074D06E0E06840F00103D2
:1001300094E8070098471034AC42F6D3FFF7DAFF93
:100140003833000858330008FEE77047F8B5154605
:100150000446A9B10E462046102100F07FF8022087
:1001600000F09EF843F6982705E016F8011B20469C
:1001700000F07FF8013F002FF7D1022000F090F847
:10018000A5B1022000F08CF82046132100F066F89B
:1001900043F6982605E015F8011B204600F069F8A3
:1001A000013E002EF7D1022000F07AF820461221FD
:1001B00000F054F82046BDE8F84000F065B80000B3
:1001C000F8B504464FF496704FF4C871032200232B
:1001D00002270126C4E90067C4E90232C4E9041019
:1001E00000F07EF810B14FF0FF351DE0204600F022
:1001F00023F80F4E20460621B0470E4F2046172108
:10020000B84720461721B84720461721B84720464F
:100210000421B047204600F037F820460021002591
:10022000B04720460F21B847284601B0F0BD00BFB7
:100230005D0200087302000810B504460068002142
:1002400000F040F8C82000F02BF82068012100F0F1
:1002500039F8C820BDE8104000F022B810B5406859
:100260000C46002100F02EF82046BDE8104000F0BA
:1002700049B810B540680C46012100F023F820462B
:10028000BDE8104000F03EB810B5044602E064201E
:1002900000F006F8E06800F005F80028F7D010BD7F
:1002A00000F04EB880B5234951F8302001EBC00072
:1002B0008188104600F022F90138B0FA80F0400938
:1002C00080BD00BF1B4B0246012903EBC20253F85D
:1002D0003000526891B214BF0022012200F013B91D
:1002E00070B50748134E90E80E50D0E90545C06937
:1002F00086E80E50C6E90545F061002070BD00BFDC
:10030000080000201CB50B4C8DF807000022206867
:10031000A18800F0F8F808480DF1070101224FF418
:100320007A7300F07BFC2068A188012200F0EBF8D2
:100330001CBD00BFD8000020400000207047000016
:10034000B0B5044600F0E4F805468E48611C00781C
:1003500018BF044400F0DCF8401BA042FAD3B0BD43
:100360002DE9FC4F594A04234FF0000B4FF00108D0
:100370004FF00F0E4FF000090025904208BF0323F5
:1003800000930A6832FA05F308BFBDE8FC8F08FA4B
:1003900005F73A4200F096804A68032A16D9112AD6
:1003A00024D0122A26D04C4B9A4213D04B4B9A425F
:1003B00010D04B4B9A420DD04A4B9A420AD04A4B2E
:1003C0009A4207D0494B9A4204D020E0DFE802F07D
:1003D0000216191D8A6832B1012A14BF47610761EC
:1003E0004FF0080913E04FF0040910E0CA6802F169
:1003F00004090CE0CA6802F10C0908E0D1F80C907D
:1004000005E0CA6802F1080901E04FF000095A4608
:100410000446082D28BF203A28BF043426680EFA67
:1004200002F309FA02F226EA03031A432260CA79A8
:10043000D20647D5624A0BF00C0C1346126842F004
:1004400001021A601A680EFA0CF302F0010201921E
:100450001F4A019CAC08A2F57E7656F8242022EAB9
:10046000030A234A904208D0224A904207D0224AE7
:10047000009B904208BF022302E0002300E001231A
:1004800003FA0CF242EA0A0246F82420104E4A68A7
:10049000D303336854BFBB433B4333609303736858
:1004A00054BFBB433B437360D302B36854BFBB43E9
:1004B0003B439202B360074A1346126854BFBA43E3
:1004C0003A431A600BF1040B01355AE7001401405E
:1004D000000401400C040140000011100000121043
:1004E0000000211000002210000031100000321026
:1004F00000080140000C01400010014080680840E5
:1005000018BF01207047002A08BF09040161704725
:1005100005480068704700BF1A48034900780A6818
:1005200010440860704700BFF800002080B589487B
:10053000016841F010010160032000F063F8002021
:1005400000F004F800F020F8002080BD70B50D4EDA
:1005500004464FF47A713078B1FBF0F08A490968AB
:10056000B1FBF0F000F010FC01250F2C08D838B9D1
:100570004FF0FF3021460022002500F025F874607E
:10058000284670BD2800002082B00D480422016872
:1005900041F001010160016801F00101019101993F
:1005A000416841F080514160406800F08050009007
:1005B00000980448016862F31A61016002B0704754
:1005C000181002400400014080B5144B1B68C3F3AF
:1005D000022CBCF1030E8CF007034FF0FF3C38BF38
:1005E0004FF0000E042B28BF04230CFA03F39943A9
:1005F0000CFA0EF301FA0EF19A431143BDE8804064
:1006000001F038B805494FF6FF030A681A4060F355
:100610000A22034810430860704700BF0CED00E059
:100620000000FA052DE9F843002800F08E80884686
:1006300048490446086800F0070040450AD20868A7
:1006400020F0070040EA08000860086800F0070092
:1006500040457AD120685C4B8946810711D5410716
:1006600042BF196841F4E0611960010742BF19688F
:1006700041F4605119601968A26821F0F00111433A
:100680001960C0072AD06068012804D153F8041CFF
:10069000890309D459E053F8041C022802D18901C6
:1006A00002D452E0890750D519681D4621F0030194
:1006B00008431860FFF72CFF064641F28837286888
:1006C00061682B4600F00C00B0EB810F06D0FFF7FD
:1006D0001FFF801BB842F2D9032037E0D9F8000091
:1006E00000F0070040450DD9D9F8000020F00700C0
:1006F00040EA0800C9F80000D9F8000000F007003F
:10070000404522D12068410705D51968E26821F4E7
:10071000E06111431960000706D51868216920F4CB
:10072000605040EAC10018601C4600F031F82168B2
:10073000094AC1F30311515CC840F24908600748F7
:100740000068FFF703FF002000E0012001B0BDE8D2
:10075000F08300BF00200240681800082C00002031
:10076000E8481949094A00680968C1F30221515C47
:10077000C8407047E3481449044A00680968C1F357
:10078000C221515CC840704738000020781800082A
:1007900010B50D4C0D48226802F00C03082B18BF51
:1007A00010BDC2F383430AA1CB5CD10302D40D4830
:1007B000584310BD21680AA25843C1F34041515C1F
:1007C000B0FBF1F010BD00BF0410024000127A002F
:1007D00002030405060708090A0B0C0D0E0F101082
:1007E0000102000000093D002DE9FC41002800F055
:1007F000408104460078C14EC0074AD0706800F0BE
:100800000C00042817D0706800F00C00082802D1F2
:100810007068C0030FD4606898B1B0F5803F06D00F
:100820003168B0F5A02F21D141F4802030603068CC
:1008300040F4803020E0306880032AD5606840BBF7
:1008400017E1306820F480303060306820F4802078
:100850003060FFF75DFE05463068800319D5FFF76D
:1008600057FE411B03206429F6D903E121F48030AF
:100870003060306820F480203060FFF749FE054684
:100880003068800305D4FFF743FE401B6428F7D986
:10089000D1E0207880072BD5706810F00C0F07D0BE
:1008A000706800F00C00082809D17068C00306D4F5
:1008B0003068800715D52069012812D0D9E0216958
:1008C0008F4800297CD001210160FFF721FE0546F9
:1008D0003068800705D4FFF71BFE401B0228F7D9BC
:1008E000A9E03068616920F0F80040EAC10030609A
:1008F000207800072ED5A06978B181480121C0F881
:100900008014FFF705FE0546706A800715D4FFF7CF
:10091000FFFD401B0228F7D98DE079480021C0F87F
:100920008014FFF7F5FD0546706A800712D5FFF7C2
:10093000EFFD401B0228F7D97DE072484FF4FA51D1
:100940000068B0FBF1F0019000BF0198411E002843
:100950000191F9D12078400776D5F069C0000BD419
:10096000F0694FF0010840F08050F061F06900F04C
:1009700080500090009801E04FF00008624F386806
:10098000C0050FD4386840F480703860FFF7C0FDB0
:1009900005463868C00505D4FFF7BAFD401B64283A
:1009A000F7D948E0E068D8B1012805D0316A0528B8
:1009B0002DD141F004003062306A40F001002CE09B
:1009C00000210160FFF7A4FD0546306880077FF530
:1009D0008FAFFFF79DFD411B03200229F5D949E0A8
:1009E000306A20F001003062306A20F0040030628A
:1009F000FFF78EFD054641F28837306A80071CD527
:100A0000FFF786FD411B0320B942F6D932E021F001
:100A100001003062306A20F004003062FFF778FD98
:100A2000054641F28837306A800706D4FFF770FD2B
:100A3000401BB842F7D903201CE0B8F1000F1EBFDD
:100A4000F06920F08050F061E769002F53D07068A2
:100A500000F00C00082810D1012F0AD07068216A1C
:100A600000F480328A4204D1616A00F47010884236
:100A700041D0012002B0BDE8F08121490020884624
:100A80000866FFF745FD0546022F0AD14746306844
:100A9000800110D5FFF73CFD411B03200229F6D948
:100AA000E8E73068800126D5FFF732FD411B0320BF
:100AB0000229F6D9DEE7206AB0F5803F05D17168DA
:100AC000A26821F40031114371607168626A1043B9
:100AD00021F474110843706001203866FFF718FD97
:100AE00004463068800106D4FFF712FD011B032085
:100AF0000229F6D9BEE70020BCE700BF0010024083
:100B000000004242380000200070004070B538B14B
:100B10000446406A30B10020206104F1140007E06F
:100B200001264CE06068B0F5827F03D004F11C0020
:100B30000021016000264FF0000CA66294F85100DD
:100B400038B9204684F8506000F03CF8A06A00F400
:100B5000005C022184F8511021680A6822F04002EA
:100B60000A60D4E90123D4E9030502F4827203F494
:100B7000044300F400601A44104405F002021044DB
:100B8000626902F001021044A26902F40073184481
:100B9000E36903F038031844236A03F08003184321
:100BA00040EA0C000860042000EA12404860C8696E
:100BB00020F40060C8610120666584F85100304669
:100BC00070BD0000FEB501460020CDE90400CDE96E
:100BD0000200D548096800F5205291421BD1D14945
:100BE0000A6842F480520A600A6802F48052019254
:100BF000019A0A6842F004020A60096801F00401DF
:100C0000019101990321059102210391A0210291F3
:100C100002A9FFF7A5FB06B080BD00BF2DE9F84390
:100C2000044690F85000012801D10220A8E04FF0BE
:100C300001091D4616460F4684F85090FFF768FCE0
:100C4000804694F85100012858D10120002F00F06F
:100C50009280002E00F08F80032084F85100002045
:100C60006065E686A6862763A087A063C4E91000B6
:100C7000E087A1682068B1F5004F07D1016821F035
:100C800040010160016841F4804101600168731E08
:100C9000B3FA83F349065EBF016841F04001016089
:100CA0005B096168E268B1FA81F1B2F5006F4FEA61
:100CB000511141EA030123D131B137F8021BC16060
:100CC0002763E08E0138E0866E1C13E0206881689F
:100CD000890707D4FFF71CFC66B1A0EB0800A84207
:100CE00008D347E0216B31F8022BC2602163E08E0C
:100CF0000138E086E08E0028E8D124E002203AE0C6
:100D000039B139780173206B01302063E08E0138EE
:100D1000E0866E1C14E020688168890707D4FFF71D
:100D2000F7FB6EB1A0EB0800A84209D322E0216BCB
:100D300009780173206B01302063E08E0138E08672
:100D4000E08E0028E7D120462946424600F0B6FB57
:100D500008B120206065A06838B9002000902068A4
:100D6000C1680091806800900098606D002818BFED
:100D7000012000E00320002184F8501084F85190F5
:100D800001B0BDE8F0830000411E0020B0EB116F00
:100D90001CBF01207047044AF023516003490B70C7
:100DA000072190601160704710E000E023ED00E043
:100DB00050B310B5044690F8390028B9002084F8E3
:100DC0003800204600F022F8242084F839002068FA
:100DD000C16821F40051C160204600F007FC206882
:100DE000016921F490410161416921F02A014161C9
:100DF000C16841F40051C16000202021E06384F803
:100E0000391084F83A1010BD0120704770B586B0D3
:100E10000026454CCDE90466CDE90266006804F57C
:100E20004051884227D13F4802AD016841F48041DA
:100E30000160016801F4804101910199016841F06C
:100E4000040101602946006800F004000190019847
:100E500003200590022003904FF40070029020467A
:100E6000FFF77EFA4FF48060CDE9036629460290D1
:100E70002046FFF775FA06B070BD00BFFEE7000020
:100E80002DE9F04F85B0274800224FF400564FF06F
:100E9000000A016841F010010160016801F01001D1
:100EA00001910199016841F020010160016801F0A0
:100EB000200101910199016841F0040101604FF4A2
:100EC0000051006800F0040001900198164800F5F8
:100ED000006583462846FFF716FB58461C21002272
:100EE0004FF01C08FFF70FFB02244FF001090F4FD2
:100EF0002846CDE903A4CDE9016901AE3146B847E2
:100F000058463146CDF80CA0CDE9014AB84701A8B2
:100F10000494314680E800075846B84705B0BDE85C
:100F2000F08F00BF18100240000801406103000864
:100F300010B5104800220A210F4C4FF0300C4FF42E
:100F4000007E4FF48273C0E90822C0E90A214FF401
:100F50000041C0E90043C0E90212C0E90422C0E92F
:100F600006ECFFF7D3FD002814BFBDE8104010BD0C
:100F7000FFF7E4B9400000200030014010B50B48F5
:100F80000B4C4FF4E13300210C22C0E90043C0E9CF
:100F90000211C0E90412C0E90611FFF709FF002899
:100FA00014BFBDE8104010BDFFF7C8B9980000207D
:100FB00000380140FEE77047F8B50C4605460026AC
:100FC00068688642A8BFF8BD002706E0284631467B
:100FD0003A46234600F006F80137A8688742F5DB59
:100FE0000136EDE780B5002921DB002A1FDBD0F8B0
:100FF00004E08E451BDDD0F808C0944517DD01F0F4
:10100000070C0EFB02110822002B91FBF2F107D016
:1010100000686FF0800343FA0CF3425C1A4005E06D
:101020000068802323FA0CF3425C1A43425480BDCB
:101030002DE9FE4F0C9F064601920D460121203BF3
:101040004FF08008B888BA4642074FEAD00218BF6E
:1010500001EBD002F9883F684B4303FB0277002283
:1010600089B28A4228BFBDE8FE8F01994FF0000B7C
:101070000292541815E00BF007093A7828FA09F1A2
:10108000114208D00D9B05EB0B013046224600F0C3
:1010900047F9BAF80400B9F1070F08BF01370BF19F
:1010A000010B8345E7D3410718BF0137029ABAF80D
:1010B00006100132D4E700002DE9F04F85B00DF1A4
:1010C000040CC3F100080024ACE807000220DDF89E
:1010D0000CA0019EA0EB43000490029FDDF838B005
:1010E00004EB0A0530462A46A7EB08095B46A346EF
:1010F000514C4946A0470E9C47442A464E4D304627
:1011000039462346A847AAEB0B0539464A4F3046D5
:1011100023462A46B847304649462A462346B8471A
:10112000049A5C465A4501DD10460DE0013400206A
:1011300042454FEA4401C8BF104614EB080F01F1C5
:10114000010118BF10460A44404505DD08F10108B9
:101150004FEA480001300244B8F1010F0492A4BFE5
:1011600005B0BDE8F08FB8E72DE9F04F87B00DF17D
:10117000080CC3F10009ACE807000220DDF808B054
:10118000A0EB430000230590039D049FDDF840A0E1
:10119000294E06935846DC19A5EB090853464146EB
:1011A0002246B0474D445846224653462946B0474A
:1011B0000698294653463F1A58463A46B04758467D
:1011C00041463A465346B047C9F1000829462246EF
:1011D000CDF800A04FEA4800461C5846334600F0C0
:1011E0004FF8584629463A463346CDF800A000F05D
:1011F00047F8DDE905239A4201DD10460CE0013392
:1012000000204A454FEA4301C8BF1046434501F15B
:10121000010118BF10460A44484505DD09F10109DE
:101220004FEA490001300244B9F1010F0592A4BF11
:1012300007B0BDE8F08FA7E7211300082DE9F843B8
:10124000089E80461046DDF824901C460D469642C6
:10125000C4BF30461646C6F1010217188B42C4BF00
:101260001D460C46AC42C8BFBDE8F8834046214647
:1012700032463B46CDF8009000F0F8F80134F1E733
:101280002DE9F041DDF8188014460D4606465F183A
:10129000BD42A8BFBDE8F0813046294622464346FC
:1012A00000F03EF80135F3E72DE9F84F00900A9879
:1012B0004FF0FF344FF0FF379B4615460E469042E5
:1012C000C8BF0124A0EB02098B42C8BF0127B9F1B6
:1012D000000FA8BFC9F10009B3EB010848BFC8F16E
:1012E000000809EB080A14E000980B9B31462A46D7
:1012F00000F016F8B9EB4A0F5046D8BF4844B8EB97
:10130000400FA4BF25444044B9EB4A0FD8BF3E4428
:1013100082460A98854218BF5E45E5D1BDE8F88F40
:1013200080B5D0F80CE0BEF1030F3AD88C46DFE868
:101330000EF002121F33BCF1000FA8BF002A30DBF1
:10134000416861452DDD816891422ADD6146BDE835
:101350008040FFF747BEBCF1000FA8BF002A20DB8A
:10136000816861451DDD416891421ADD891A24E0DA
:10137000BCF1000FA8BF002A13DB4168614510DDF6
:10138000D0F808E096450CDDA1EB0C01AEEB0202B3
:10139000BDE88040FFF726BEBCF1000FA8BF002AC1
:1013A00000DA80BDD0F808E0E645FADD41689142F8
:1013B000D8BF80BDAEEB0C0C11466246BDE8804044
:1013C000FFF710BE2DE9F84FDDF82CA0DDF828B0AE
:1013D0000C461D4680468B421646CDF800A0C4BF81
:1013E0000D461C46601B5F469345294600F10109E6
:1013F000C8BF174640463A464B46FFF741FFCDF877
:1014000000A0B345C8BF5E464046294632464B461B
:10141000FFF736FFF01B29463A46CDF800A0461CE0
:101420004046334600F022F8404621463A463346CD
:10143000CDF800A000F01AF8BDE8F88F2DE9FE43C2
:10144000DDE90A581C4691460E46074609E0384633
:1014500031464A46CDE90058FFF7EAFDA888013435
:1014600006442378002BF2D1BDE8FE832DE9F0413C
:10147000DDF8188014460D4606469F18BC42A8BFEA
:10148000BDE8F0813046294622464346FFF748FF33
:101490000134F3E710B54FEAE27E4FF0000C02F1A1
:1014A000080402EB5E7E2EF0070EB2EB0E0E18BFA4
:1014B000A4EB0E0280E80E1010BD704710B5134665
:1014C0000A468021044600F00BF800280FBF0020D8
:1014D000606D40F02000606518BF032010BD000063
:1014E0002DE9FC411E4617460D468046FFF710F8D1
:1014F000301AC419FFF70CF8064626480137006871
:10150000C0F3CB306043019006E0019801990139A6
:101510000028019108BF0446D8F8000081682940DE
:10152000A94232D1002FF9D0FEF7F2FF801BA04272
:10153000EBD3D8F80000416821F0E0014160D8F811
:101540000410B1F5827F0BD1D8F80810B1F5004F27
:1015500002D0B1F5806F03D1016821F04001016034
:10156000D8F82810B1F5005F07D1016821F40051C7
:101570000160016841F400510160002088F85000CA
:10158000012088F85100032000E0002002B0BDE8EF
:10159000F08100BF380000207047FEF7BDBFB0B536
:1015A00090B000244FF4E01002250121CDE90B4456
:1015B000CDE909440F904FF480300E900D950A91BB
:1015C0000894CDE9061006A8FFF70EF94FF48060E5
:1015D0000594022104900F20CDE90254019001A846
:1015E000FFF720F810B0B0BD7047000010B50446FA
:1015F00000680169E26821F44051114341F20C6234
:101600000161D4F808C0D4E904E3C16891434EEA0B
:101610000C021A431143C1604169A26921F440716F
:10162000114341611149884202D0FFF799F801E066
:10163000FFF7A0F819214843D4E900126FF06304C2
:101640009200B0FBF2F06422B0FBF2F303FB040063
:10165000322404EB0010B0FBF2F000F0F00200F0D6
:101660000F0002EB03121044886010BD00380140E7
:10167000FEE7000010B5074C00F00F03044AB0F17C
:10168000FF3F2344C8BF83180801187010BD00BF76
:1016900000E400E014ED00E02DE9F04790B0FEF723
:1016A00045FF43F6982000F0A9F8824643F69820BB
:1016B00000F0A4F80546FFF772FFFFF7E1FBFFF724
:1016C00037FCFFF75BFC0AA8FEF77AFD20B14FF06C
:1016D000FF3010B0BDE8F0870DF11809DDE90E23E9
:1016E00051464846FFF7D6FE484600214FF0000815
:1016F000FFF762FC02AFDDE90E2329463846FFF70B
:10170000C9FE38460021FFF757FC01264FF48C74C0
:10171000484614215022B423CDE90046FFF752FE7B
:10172000484614215022B423CDE90046FFF7BCFD02
:101730004846B42150221423CDE90046FFF7B4FDFA
:101740003846C82150224FF4B473CDE90046FFF764
:1017500075FD38464FF49671A0223C23CDF80080E9
:10176000FFF7AAFC38465A21D2221E2300961E24D7
:10177000FFF7FAFC3846002106224FF4C873CDE982
:101780000046FFF75BFD0C4C0CA3384664210A228F
:10179000CDF804800094FFF751FE0CA34846642165
:1017A0002822CDE90046FFF749FE0AA851462A46FD
:1017B000FEF7CCFCFEE700BF3000002048656C6CF3
:1017C0006F20776F726C642100000000652D5061FE
:1017D0007065722044656D6F0000000002E008C86B
:1017E000121F08C1002AFAD170477047002001E09B
:1017F00001C1121F002AFBD170470000F0B50B3069
:10180000154D20F007010024144A0FE003688B42B5
:101810000BD38B4205D95E1A43184768C3E90067AA
:1018200000E04368136002C004E0021D1068002855
:10183000ECD12046002802D1286808B10020F0BD74
:10184000064A07481060074A121A22F00702C0E948
:10185000002401202860D7E70400002000000020B9
:101860000401002000030020000000000000000030
:101870000102030406070809000000000102030436
:101880000000000000000000000000000000000058
:101890000000000000000000000000000000000048
:1018A0000000000000000000000000000000000038
:1018B0000000000000000000000000000000000028
:1018C0000000000000000000000000000000038095
:1018D0000003800003800003800003800003800079
:1018E000038000038000038000010000010000006D
:1018F00000000000000380000380000000000000E2
:1019000000000000000000000000000000000000D7
:101910000000000000000000000E70000E70000EBD
:1019200070000420000420000420000420000000B7
:1019300000000000000000000000000000000000A7
:101940000000000000000000000000000000000097
:101950000000000000000000000000000000066021
:10196000000660000660000660000660003FF800A8
:101970003FF8000660000CC0003FF8003FF8000C84
:10198000C0000CC0000CC0000CC0000CC000000067
:101990000000000000000000000000000000000047
:1019A00000000001800001800007B0000FF0001867
:1019B00070001870001C00000F800007E00000F0AD
:1019C000001830001C30001C70001FE0001BC0001D
:1019D0000180000180000180000180000000000003
:1019E0000000000000000000000000000000078070
:1019F000000FC0001CE0001860001860001CE00030
:101A00000FF80007E0001FF0000738000618000676
:101A1000180007380003F00001E00000000000009B
:101A200000000000000000000000000000000000B6
:101A300000000000000000000000000003F00007AC
:101A4000F0000C60000C00000C0000060000070015
:101A5000000F9C001DFC0018F0001870000FFC0027
:101A600007DC000000000000000000000000000093
:101A70000000000000000000000000000000000066
:101A800000038000038000038000010000010000CB
:101A90000100000100000000000000000000000044
:101AA0000000000000000000000000000000000036
:101AB0000000000000000000000000000000000026
:101AC0000000000000000018000038000070000056
:101AD000F00000E00000E00001C00001C00001C013
:101AE0000001C00001C00001C00000E00000E000F3
:101AF00000700000700000380000180000000000B6
:101B000000000000000000000000000000001800BD
:101B1000001C00000E00000E00000700000700007F
:101B20000380000380000380000380000380000323
:101B300080000700000700000F00000E00001C00DE
:101B4000001800000000000000000000000000007D
:101B50000000000000000180000180000180001DE5
:101B6000B8001FF80007E00003C00003C0000660D3
:101B700000066000000000000000000000000000FF
:101B80000000000000000000000000000000000055
:101B90000000000000000000000000000000000045
:101BA0000000000001800001800001800001800031
:101BB0000180003FFC003FFC00018000018000012B
:101BC0008000018000018000000000000000000093
:101BD0000000000000000000000000000000000005
:101BE00000000000000000000000000000000000F5
:101BF00000000000000000000000000000000000E5
:101C00000000000000000000000000E00000C00034
:101C100001C00001800001800003000003000000FB
:101C200000000000000000000000000000000000B4
:101C300000000000000000000000000000000000A4
:101C40000000001FF8001FF8000000000000000066
:101C50000000000000000000000000000000000084
:101C60000000000000000000000000000000000074
:101C70000000000000000000000000000000000064
:101C80000000000000000000000000000000000054
:101C90000000000000000000000003C00003C000BE
:101CA00003C0000000000000000000000000000071
:101CB00000000000000000000018000018000038BC
:101CC0000000300000700000600000600000C000F4
:101CD00000C0000180000180000300000300000636
:101CE00000000600000E00000C00001C00001800A0
:101CF00000180000000000000000000000000000CC
:101D000000000000000003C00007E0000C30000CE1
:101D100030001818001818001818001818001818A3
:101D2000001818001818000C30000C300007E000F4
:101D300003C00000000000000000000000000000E0
:101D40000000000000000000000000000000008013
:101D5000000780001F80001D8000018000018000BE
:101D600001800001800001800001800001800001ED
:101D700080000180001FF8001FF800000000000034
:101D80000000000000000000000000000000000053
:101D900000000000000007C0001FF00038300030D5
:101DA000180030180000180000300000600001C06A
:101DB000000380000600000C00001800003FF8003F
:101DC0003FF80000000000000000000000000000DC
:101DD000000000000000000000000000000003C040
:101DE000000FE0000C7000003000003000006000C8
:101DF00003C00003E000007000001800001800009D
:101E000018001838001FF0000FC00000000000008C
:101E100000000000000000000000000000000000C2
:101E200000000000000000E00001E00001E000030D
:101E300060000660000660000C60000C6000186026
:101E4000003060003FF8003FF80000600003F80039
:101E500003F8000000000000000000000000000087
:101E600000000000000000000000000000001FF063
:101E7000001FF0001800001800001800001BC00030
:101E80001FF0001C300000180000180000180000AF
:101E900018003030003FF0000FC0000000000000CC
:101EA0000000000000000000000000000000000032
:101EB00000000000000000F80003F8000700000E1A
:101EC00000000C00001800001BC0001FF0001C30B8
:101ED000001818001818001818000C38000FF0002F
:101EE00003E000000000000000000000000000000F
:101EF00000000000000000000000000000001FF8CB
:101F0000001FF800181800183800003000003000DA
:101F100000700000600000600000E00000C00000F1
:101F2000C00001C00001800001800000000000002E
:101F300000000000000000000000000000000000A1
:101F400000000000000007E0000FF0001C3800183F
:101F500018001818000C300007E00007E0000C30F3
:101F6000001818001818001818001C38000FF0008E
:101F700007E000000000000000000000000000007A
:101F8000000000000000000000000000000007C08A
:101F9000000FF0001C300018180018180018180066
:101FA0000C38000FF80003D80000180000300000C3
:101FB000700000E0001FC0001F00000000000000D3
:101FC0000000000000000000000000000000000011
:101FD0000000000000000000000000000000000001
:101FE000000003C00003C00003C0000000000000A8
:101FF0000000000000000000000003C00003C0005B
:1020000003C000000000000000000000000000000D
:1020100000000000000000000000000000000000C0
:102020000000000000000000000000F00000F000D0
:1020300000F00000000000000000000000000000B0
:10204000E00001C0000180000180000300000200E8
:102050000000000000000000000000000000000080
:10206000000000000000000000000000001C000054
:102070003C0000F00003C0000F00003C0000F00036
:10208000003C00000F000003C00000F000003C0016
:10209000001C000000000000000000000000000024
:1020A0000000000000000000000000000000000030
:1020B000000000000000000000000000007FFC00A5
:1020C0007FFC000000000000007FFC007FFC00009F
:1020D0000000000000000000000000000000000000
:1020E00000000000000000000000000000000000F0
:1020F00000000000000000000000000070000078F8
:1021000000001E000007800001E000007800001EB3
:102110000000780001E0000780001E000078000049
:10212000700000000000000000000000000000003F
:10213000000000000000000000000000000000009F
:102140000007C0000FE000187000183000183000C1
:1021500000700000E00003C00003800003000000E6
:102160000000000000070000070000000000000061
:10217000000000000000000000000000000000005F
:1021800000000000000003E00007F0000E38000C23
:10219000180018780018F80019D800199800199834
:1021A0000019980018F8001878001800000C0000BA
:1021B0000E180007F80003E0000000000000000017
:1021C000000000000000000000000000000000000F
:1021D000001F80001FC00001C000036000036000FA
:1021E0000630000630000C30000FF8001FF8001811
:1021F0000C00300C00FC7F00FC7F000000000000A1
:1022000000000000000000000000000000000000CE
:102210000000000000000000007FE0007FF00018D8
:1022200038001818001818001838001FF0001FF8A0
:1022300000181C00180C00180C00180C007FF80087
:102240007FF000000000000000000000000000001F
:10225000000000000000000000000000000000007E
:102260000003EC000FFC001C1C00180C00300C00DC
:102270003000003000003000003000003000001856
:102280000C001C1C000FF80003F000000000000010
:10229000000000000000000000000000000000003E
:1022A0000000000000000000007FC0007FF0001868
:1022B0003800181800180C00180C00180C00180C26
:1022C00000180C00180C001818001838007FF000D7
:1022D0007FE000000000000000000000000000009F
:1022E00000000000000000000000000000000000EE
:1022F000007FF8007FF800181800181800199800DF
:102300001980001F80001F80001980001998001894
:1023100018001818007FF8007FF800000000000087
:1023200000000000000000000000000000000000AD
:102330000000000000000000003FFC003FFC000C1B
:102340000C000C0C000CCC000CC0000FC0000FC027
:10235000000CC0000CC0000C00000C00003FC000CE
:102360003FC000000000000000000000000000006E
:10237000000000000000000000000000000000005D
:102380000003EC000FFC001C1C00180C00300C00BB
:1023900030000030000030FE0030FE00300C00380D
:1023A0000C001C1C000FFC0003F0000000000000EB
:1023B000000000000000000000000000000000001D
:1023C0000000000000000000007E7E007E7E0018FD
:1023D00018001818001818001818001FF8001FF827
:1023E000001818001818001818001818007E7E0031
:1023F0007E7E0000000000000000000000000000E1
:1024000000000000000000000000000000000000CC
:10241000001FF8001FF8000180000180000180000B
:102420000180000180000180000180000180000126
:1024300080000180001FF8001FF80000000000006D
:10244000000000000000000000000000000000008C
:1024500000000000000000000007FE0007FE000072
:10246000300000300000300000300000300030301C
:10247000003030003030003030003060003FE0008D
:102480000F800000000000000000000000000000BD
:10249000000000000000000000000000000000003C
:1024A000007F3E007F3E0018300018600018C0001A
:1024B0001980001B80001FC0001CE000187000186D
:1024C00030001838007F1F007F1F00000000000050
:1024D00000000000000000000000000000000000FC
:1024E0000000000000000000007F80007F80000CE2
:1024F00000000C00000C00000C00000C00000C00A0
:10250000000C0C000C0C000C0C000C0C007FFC00F0
:102510007FFC000000000000000000000000000040
:1025200000000000000000000000000000000000AB
:1025300000F00F00F81F00381C003C3C003C3C0041
:10254000366C00366C0033CC0033CC00318C00305C
:102550000C00300C00FE7F00FE7F00000000000039
:10256000000000000000000000000000000000006B
:1025700000000000000000000078FE0078FE001C53
:1025800018001E18001F18001B18001B980019D8EF
:102590000018D80018F8001878001838007F1800C4
:1025A0007F18000000000000000000000000000094
:1025B000000000000000000000000000000000001B
:1025C0000003C0000FF0001C3800181800381C0071
:1025D000300C00300C00300C00300C00381C00189F
:1025E00018001C38000FF00003C0000000000000BD
:1025F00000000000000000000000000000000000DB
:102600000000000000000000003FF0003FF8000C58
:102610001C000C0C000C0C000C0C000C18000FF82B
:10262000000FE0000C00000C00000C00003FC00098
:102630003FC000000000000000000000000000009B
:10264000000000000000000000000000000000008A
:102650000003C0000FF0001C3800181800381C00E0
:10266000300C00300C00300C00300C00381C00180E
:1026700018001C38000FF00007C00007CC000FFC4A
:10268000000C380000000000000000000000000006
:102690000000000000000000007FE0007FF0001854
:1026A00038001818001818001838001FF0001FC054
:1026B0000018E0001870001830001838007F1E0065
:1026C0007F0E00000000000000000000000000007D
:1026D00000000000000000000000000000000000FA
:1026E0000007D8000FF8001C380018180018180050
:1026F0001E00000FC00003F000007800181800183A
:1027000018001C38001FF0001BE000000000000053
:1027100000000000000000000000000000000000B9
:102720000000000000000000003FFC003FFC003102
:102730008C00318C00318C00318C000180000180D4
:10274000000180000180000180000180000FF00086
:102750000FF000000000000000000000000000007A
:102760000000000000000000000000000000000069
:10277000007E7E007E7E00181800181800181800D1
:102780001818001818001818001818001818001841
:1027900018000C30000FF00003C000000000000023
:1027A0000000000000000000000000000000000029
:1027B0000000000000000000007F7F007F7F001805
:1027C0000C000C18000C18000C1800063000063025
:1027D0000003600003600003600001C00001C0004E
:1027E0000080000000000000000000000000000069
:1027F00000000000000000000000000000000000D9
:1028000000FE3F80FE3F803006003006003086002C
:1028100019CC0019CC001B6C001B6C001E7C000E38
:1028200038000E38000C18000C18000000000000E2
:102830000000000000000000000000000000000098
:102840000000000000000000007E7E007E7E001878
:1028500018000C300006600003C0000180000180F9
:102860000003C0000660000C30001818007E7E00D7
:102870007E7E00000000000000000000000000005C
:102880000000000000000000000000000000000048
:10289000007C7E007C7E001818000C300006600072
:1028A00006600003C000018000018000018000017B
:1028B00080000180000FF0000FF000000000000019
:1028C0000000000000000000000000000000000008
:1028D0000000000000000000001FF8001FF80018B2
:1028E000180018300018600018C0000180000300B4
:1028F000000618000C18001818003018003FF800E7
:102900003FF8000000000000000000000000000090
:10291000000000000000000000000000000001F0C6
:102920000001F000018000018000018000018000B2
:102930000180000180000180000180000180000111
:10294000800001800001800001800001800001F012
:102950000001F00000000000000000000000000086
:102960001800001800001C00000C00000E000006FB
:102970000000060000030000030000018000018049
:102980000000C00000C00000600000600000700097
:10299000003000003800001800001800000000009F
:1029A00000000000000000000000000000000F8098
:1029B000000F800001800001800001800001800084
:1029C0000180000180000180000180000180000181
:1029D00080000180000180000180000180000F80E4
:1029E000000F800000000000000000000000000058
:1029F00000000000800001C00003E0000770000636
:102A000030000C1800180C0010040000000000003A
:102A100000000000000000000000000000000000B6
:102A200000000000000000000000000000000000A6
:102A30000000000000000000000000000000000096
:102A40000000000000000000000000000000000086
:102A50000000000000000000000000000000000076
:102A60000000000000000000000000000000000066
:102A700000000000000000000000FFFF00FFFF005A
:102A800000000003000003800000E0000060000080
:102A90000000000000000000000000000000000036
:102AA0000000000000000000000000000000000026
:102AB0000000000000000000000000000000000016
:102AC0000000000000000000000000000000000006
:102AD000000000000000000000000FC0001FE00028
:102AE00000300000300007F0001FF00038300030E8
:102AF00030003070001FFC000FBC00000000000020
:102B000000000000000000000000000000000000C5
:102B10000000000000007800007800001800001895
:102B200000001BE0001FF8001C1800180C00180C17
:102B300000180C00180C00180C001C18007FF8007E
:102B40007BE000000000000000000000000000002A
:102B50000000000000000000000000000000000075
:102B60000000000000000000000003EC000FFC006B
:102B70001C1C00380C00300C003000003000003805
:102B80000C001C1C000FF80003F000000000000007
:102B90000000000000000000000000000000000035
:102BA000000000000000007800007800001800001D
:102BB000180007D8001FF800183800301800301827
:102BC000003018003018003018001838001FFE00C0
:102BD00007DE000000000000000000000000000010
:102BE00000000000000000000000000000000000E5
:102BF0000000000000000000000007E0001FF800D7
:102C0000181800300C003FFC003FFC003000003082
:102C10000000180C001FFC0007F00000000000007E
:102C200000000000000000000000000000000000A4
:102C300000000000000001FC0003FC00060000068C
:102C400000003FF8003FF800060000060000060004
:102C5000000600000600000600000600003FF0002D
:102C60003FF0000000000000000000000000000035
:102C70000000000000000000000000000000000054
:102C80000000000000000000000007DE001FFE0042
:102C90001838003018003018003018003018003094
:102CA00018001838001FF80007D800001800001896
:102CB000000038000FF0000FC0000000000000000E
:102CC00000000000000078000078000018000018E4
:102CD00000001BE0001FF0001C3800181800181836
:102CE000001818001818001818001818007E7E0028
:102CF0007E7E0000000000000000000000000000D8
:102D00000000000000000000000000000000018042
:102D1000000180000000000000001F80001F8000F4
:102D2000018000018000018000018000018000011D
:102D300080000180003FFC003FFC0000000000001C
:102D40000000000000000000000000000000000083
:102D500000000000000000C00000C00000000000F3
:102D600000001FF0001FF0000030000030000030B5
:102D70000000300000300000300000300000300063
:102D80000030000030000030000070001FE0001F25
:102D900080000000000000000000000000003C0077
:102DA000003C00000C00000C00000CF8000CF800C7
:102DB0000CC0000D80000F80000F00000F80000D80
:102DC000C0000CE0003C7C003C7C000000000000E7
:102DD00000000000000000000000000000000000F3
:102DE0000000000000001F80001F80000180000123
:102DF00080000180000180000180000180000180CE
:102E0000000180000180000180000180003FFC0083
:102E10003FFC000000000000000000000000000077
:102E200000000000000000000000000000000000A2
:102E300000000000000000000000F77800FFFC0028
:102E400039CC00318C00318C00318C00318C003158
:102E50008C00318C00FDEF00FDEF00000000000051
:102E60000000000000000000000000000000000062
:102E70000000000000000000000000000000000052
:102E800000007BE0007FF0001C38001818001818C4
:102E9000001818001818001818001818007E7E0076
:102EA0007E7E000000000000000000000000000026
:102EB0000000000000000000000000000000000012
:102EC0000000000000000000000003C0000FF00040
:102ED0001C3800381C00300C00300C00300C00385E
:102EE0001C001C38000FF00003C0000000000000B0
:102EF00000000000000000000000000000000000D2
:102F000000000000000000000000000000000000C1
:102F100000007BE0007FF8001C1800180C00180C63
:102F200000180C00180C00180C001C18001FF800EA
:102F30001BE0001800001800001800007F00007F50
:102F40000000000000000000000000000000000081
:102F50000000000000000000000007DE001FFE006F
:102F600018380030180030180030180030180030C1
:102F700018001838001FF80007D8000018000018C3
:102F80000000180000FE0000FE000000000000002D
:102F90000000000000000000000000000000000031
:102FA00000003E78003EFC0007CC00070000060051
:102FB000000600000600000600000600003FF000CA
:102FC0003FF00000000000000000000000000000D2
:102FD00000000000000000000000000000000000F1
:102FE0000000000000000000000007F8000FF800DB
:102FF0001818001818001F80000FF00000F80018C3
:1030000018001838001FF0001FE00000000000004A
:1030100000000000000000000000000000000000B0
:103020000000000000000C00000C00000C00000C70
:1030300000003FF0003FF0000C00000C00000C000E
:10304000000C00000C00000C00000C1C0007FC0031
:1030500003F000000000000000000000000000007D
:103060000000000000000000000000000000000060
:103070000000000000000000000078780078780070
:103080001818001818001818001818001818001838
:1030900018001838000FFE0007DE000000000000D6
:1030A0000000000000000000000000000000000020
:1030B0000000000000000000000000000000000010
:1030C00000007C3E007C3E001818001818000C30F0
:1030D000000C300006600006600007E00003C0003E
:1030E00003C000000000000000000000000000001D
:1030F00000000000000000000000000000000000D0
:1031000000000000000000000000783C00783C0057
:103110003118003398003398001AB0001EF0001EDA
:10312000F0001C60000C60000C600000000000005B
:10313000000000000000000000000000000000008F
:10314000000000000000000000000000000000007F
:1031500000003E7C003E7C000C300006600003C096
:103160000001800003C0000660000C30003E7C00BF
:103170003E7C000000000000000000000000000095
:10318000000000000000000000000000000000003F
:10319000000000000000000000007E1F007E1F00F5
:1031A000180C000C18000C18000630000630000344
:1031B000600003E00001C00000C000018000018049
:1031C000000300003FC0003FC000000000000000FE
:1031D00000000000000000000000000000000000EF
:1031E00000001FF8001FF80018300018600000C031
:1031F000000180000300000618000C18001FF800F2
:103200001FF80000000000000000000000000000A7
:10321000000000000000000000000000000000E0CE
:103220000001E000018000018000018000018000B9
:10323000018000018000038000070000038000017E
:10324000800001800001800001800001800001E019
:103250000000E0000000000000000000000000008E
:1032600000000000000001800001800001800001DA
:103270008000018000018000018000018000018049
:1032800000018000018000018000018000018000B9
:10329000018000018000018000018000000000002A
:1032A0000000000000000000000000000000070017
:1032B0000007800001800001800001800001800083
:1032C00001800001800001C00000E00001C0000199
:1032D00080000180000180000180000180000780E3
:1032E00000070000000000000000000000000000D7
:1032F00000000000000000000000000000000000CE
:1033000000000000000000000E00001F18003BB885
:103310000031F00000E000000000000000000000AC
:10332000000000000000000000000000000000009D
:1033300000000000000000005833000800000020DA
:1033400040000000DC17000898330008400000200F
:10335000C0060000EC17000800000000000000009C
:1033600000080140100000000008014002000000B9
:1033700000080140040000000008014008000000AF
:103380000100000010000000801800081100180063
:083390000024F400000000001D
:04000005080000ED02
:00000001FF
